:020000040800F2
:1000000030930020B9020008153100085729000874
:1000100011310008AD21000873360008000000000F
:100020000000000000000000000000000133000894
:10003000B12100080000000089310008ED330008FC
:10004000D3020008D3020008D3020008D30200083C
:10005000D3020008D3020008D3020008D30200082C
:10006000D3020008D3020008D3020008D30200081C
:10007000D3020008D3020008D3020008D30200080C
:10008000D3020008D3020008D3020008D3020008FC
:10009000D3020008D3020008D3020008D3020008EC
:1000A000D3020008D3020008D3020008D3020008DC
:1000B000D3020008D3020008D3020008D3020008CC
:1000C000D3020008D3020008D3020008D3020008BC
:1000D000D3020008D3020008D302000851340008FC
:1000E000D3020008D3020008D3020008D30200089C
:1000F000D3020008D3020008D3020008D30200088C
:10010000D3020008D3020008D3020008D30200087B
:10011000D3020008D3020008D3020008D30200086B
:10012000D3020008D3020008D3020008D30200085B
:1001300000F002F800F0B0F80AA090E8000C824449
:100140008344AAF10107DA4501D100F0A5F8AFF226
:10015000090EBAE80F0013F0010F18BFFB1A43F0A5
:100160000103184798A60300B8A603000A444FF0FD
:10017000000C10F8013B13F0070408BF10F8014B06
:100180001D1108BF10F8015B641E05D010F8016B4B
:10019000641E01F8016BF9D113F0080F1EBF10F8AF
:1001A000014BAD1C0C1B09D16D1E58BF01F801CBD2
:1001B000FAD505E014F8016B01F8016B6D1EF9D555
:1001C0009142D6D37047000000230024002500266A
:1001D000103A28BF78C1FBD8520728BF30C148BFAA
:1001E0000B6070476E2900F0B084702900F0118612
:1001F000662931F0CA86652931F0C786672931F052
:10020000C486612931F0C38603681B0A28BF41F008
:100210008001692900F06E81642900F06B817529E5
:1002200000F068816F2900F09E85782900F0DD8557
:10023000E92900F03985E42900F03685F52900F038
:100240003385EF2900F09B85F82900F0DC850368F1
:10025000DB0928BF41F08001632900F0BA847329CB
:1002600000F0BF84E32901F00582F32901F00A823E
:10027000002070471FB501F09FFA04000020002104
:1002800031F080FC401C60600020002131F090FCC7
:10029000E0601FBD10B510BD01F068FA1146FFF710
:1002A000E9FF2AF0DDFF01F04BFB03B4FFF7F2FF9B
:1002B00003BC00F0F1FD00000948804709480047F1
:1002C000FEE7FEE7FEE7FEE7FEE7FEE7FEE7FEE706
:1002D000FEE7FEE704480549054A064B7047000063
:1002E000F1330008310100083081002030930020F4
:1002F000308300203083002053EA020C00F0698034
:100300002DE9F04B4FF00006002B1FBFB3FA83F529
:1003100003FA05F424FA05F65E4012BF1643B2FA5A
:1003200082F502FA05F4C5F120051EBF22FA05FC8C
:1003300044EA0C04203556EA044C4FEA144418BF32
:10034000641C4FF000084FF00009904271EB030C61
:1003500039D3002919BFB1FA81F701FA07F6B0FACB
:1003600080F700FA07F6C7F120071EBF20FA07FC46
:1003700046EA0C062037B6FBF4FCA7EB0507103F56
:1003800007F01F0BCBF120060CFA0BFB2CFA06F63C
:1003900044BFB3460026202FA4BF5E464FF0000B9B
:1003A0005BEA060C08BF4FF0010B19EB0B09ABFB26
:1003B000027C48EB0608C01B06FB02CC0BFB03CCFF
:1003C00071EB0C01C1E70B46024641464846BDE8C9
:1003D000F08B13B54FF000004FF00001AFF3008039
:1003E000BDE81C40704700007CB51D4616460C0059
:1003F000009001D02044401E074B7B442A466946AA
:100400000190304600F0BBFB05461CB10020694658
:1004100000F0C8FB28467CBDB10700000FB47CB5D6
:100420000C0009AA009001D02044401E084B7B44D8
:1004300069460190089800F0A2FB05461CB1002017
:10044000694600F0AFFB28467CBC5DF814FB000059
:100450007D07000070B5044685690068C10601D5B6
:10046000302600E02026C00707D070BDD4E9012166
:1004700030469047206A401C20626D1EF6D570BD44
:1004800070B5044685690078C00707D170BDD4E90E
:10049000012120209047206A401C20626D1EF6D565
:1004A00070BD70B50C460546012A05D02878800637
:1004B00000D5EA69002302E0012305E05B1C9342BA
:1004C00002D2E05C0028F9D1A869E618C01AA86138
:1004D000286A184428622846FFF7BCFF04E0D5E9E3
:1004E000012114F8010B9047B442F8D32846FFF7D6
:1004F000C7FF70BD2DE9F04106460024106875293C
:10050000314616A510D000F0B5FA002802DA4042B4
:1005100013A507E031688A0701D512A502E0490753
:1005200004D511A5012401E000F0ADFA00210A2252
:1005300006F1240709E0B0FBF2FCB0FBF2F302FB8A
:100540001C00303078541846491C0028F3D123464B
:100550002A463046BDE8F04100F09EBA0000000097
:100560002D0000002B000000200000002DE9F05FAE
:10057000894604464FF0000ADFF874B1FB44C0F826
:1005800020A02046E1688847002874D0252806D09E
:10059000D4E901219047206A401C2062F1E700263F
:1005A0005F462046E16888472028054607DB312D55
:1005B00005D2781910F8200C08B10643F1E7B0070E
:1005C00001D526F00406C4F81CA00027C4F818A022
:1005D0002A2D09D0284603F0C7FA38B304EB870860
:1005E000303DC8F8185019E059F8041B204604EBB8
:1005F00087029161E1688847012F054618D1E069BB
:10060000002820DA26F020061DE0D8F8180000EBBC
:10061000800005EB40003038C8F818002046E1683B
:100620008847054603F0A0FA0028EED1012F0AD032
:100630002E2D08D12046E16888477F1C0546022FF1
:1006400046F02006C4DBA069002803DA404246F0E9
:100650000106A061F00701D026F010066C2D0BD02A
:10066000682D09D04C2D39D06A2D35D0742D35D058
:100670007A2D33D016E038E0E1682F4620468847CF
:10068000B842054609D16C2F26D04FF48060E1684E
:10069000064320468847054604E06C2F1AD04FF4E5
:1006A000807006430DB3A5F14100192802D820350A
:1006B00046F400664A462946204626604E46FFF725
:1006C00091FD80B101280BD0F61D26F0070000F146
:1006D000080956E74020E4E78020D8E70020D6E765
:1006E00006F104094DE7284652E7206ABDE8F09F6D
:1006F0004497030070B5064600F0B8F90468054653
:1007000030460A22002100F08FFB2C6070BD401E95
:10071000CAB210F8011F8A4202D00029F9D1002084
:10072000704730B505460B462A4613F8014B12F8C0
:10073000010B08B1A042F8D01CB1002802D06D1CFA
:10074000F1E7284630BD40EA0103024630B59B0779
:1007500010D14FF0013400E008C208C91D1B9D43B1
:1007600015EAC41FF8D013F0FF0102F8011B0DD0E9
:100770001B0AF8E711F8013B002B02F8013B05D0FA
:1007800011F8013B002B02F8013BF3D130BD10B54D
:10079000431C02E010F8011B71B18107FAD14FF040
:1007A000013202C88C1A8C4314EAC211F9D0C01A63
:1007B0000A0603D0C01E10BDC01A10BD0A0401D025
:1007C000801E10BD0902FCD0401E10BD40EA01038E
:1007D00070B59B072ED14FF00136042A2AD308C8E2
:1007E00010C99D1B9D43121F15EAC61517D0D8B21C
:1007F000E1B2401A50EA056110D198B2A1B2401A94
:1008000050EA05410AD123F07F4024F07F41401A8D
:1008100050EA052102D1180EA0EB146070BDA3426E
:10082000DBD018BA21BA884201D9012070BD4FF03F
:10083000FF3070BD0AB9002070BD10F8013B11F8FF
:10084000014B63B1A3420AD1521E08D010F8013BFC
:1008500011F8014B1BB1A34201D1521EEDD1181B5F
:1008600070BD032A40F2308010F0030C00F01580B8
:1008700011F8013BBCF1020F624498BF11F801CBA3
:1008800000F8013B38BF11F8013BA2F1040298BF08
:1008900000F801CB38BF00F8013B11F0030300F072
:1008A0002580083AC0F0088051F8043B083A51F816
:1008B00004CBA0E80810F5E7121D5CBF51F8043B1B
:1008C00040F8043BAFF30080D20724BF11F8013B8E
:1008D00011F801CB48BF11F8012B24BF00F8013BF0
:1008E00000F801CB48BF00F8012B704710B5203A43
:1008F000C0F00B80B1E81850203AA0E81850B1E8D9
:100900001850A0E81850BFF4F5AF5FEA027C24BF8E
:10091000B1E81850A0E8185044BF18C918C0BDE885
:1009200010405FEA827C24BF51F8043B40F8043B4E
:1009300008BF7047D20728BF31F8023B48BF11F803
:10094000012B28BF20F8023B48BF00F8012B70475D
:100950004FF000020429C0F0128010F0030C00F0E8
:100960001B80CCF1040CBCF1020F18BF00F8012B66
:10097000A8BF20F8022BA1EB0C0100F00DB85FEA34
:10098000C17C24BF00F8012B00F8012B48BF00F800
:10099000012B70474FF0000200B51346944696466F
:1009A000203922BFA0E80C50A0E80C50B1F1200182
:1009B000BFF4F7AF090728BFA0E80C5048BF0CC030
:1009C0005DF804EB890028BF40F8042B08BF70478E
:1009D00048BF20F8022B11F0804F18BF00F8012B00
:1009E000704700004FF0013C50F8042B51F8043BD5
:1009F0009A4221D1A2EB0C03934313EACC1317D1F3
:100A000050F8042B51F8043B9A4215D1A2EB0C0389
:100A1000934313EACC130BD150F8042B51F8043B49
:100A20009A4209D1A2EB0C03934313EACC13DBD017
:100A30004FF00000704700BFD01A01BAB1FA81F13F
:100A400001F0180122FA01F0CB40C1F12001DBB224
:100A5000C0B2C01A2CFA01F3D11A914311EAC311A2
:100A6000E6D17047704770477047000000487047F4
:100A7000D080002009684A0501D540B27047C905F9
:100A8000FCD500B2704709684A0501D5C0B270476D
:100A9000C905FCD580B270472DE9F0470D4699464F
:100AA0009246044600F124080168880604D5E069EE
:100AB00021F01001216000E00120A84201DD471B68
:100AC00000E00027A1697A1902EB0900081AA06169
:100AD0002078C00602D42046FFF7BCFC002608E0C0
:100AE000D4E901211AF806009047206A401C761CC0
:100AF00020624E45F4DB2078C0060AD52046FFF779
:100B0000A9FC06E0D4E9012130209047206A401C6E
:100B10002062381EA7F10107F4DC07E0D4E90121C7
:100B200018F805009047206A401C2062281EA5F195
:100B30000105F3DC2046FFF7A3FC2078000602D570
:100B40000220BDE8F0870120FBE711680268006A17
:100B5000530501D508700AE0D30501D5088006E0E9
:100B6000130603D5C217C1E9000200E008600120A6
:100B70007047000001694A1C02610878704700B59F
:100B80008FB0CDE901310021059105497944CDE9C6
:100B9000031011466846FFF7E9FC0FB000BD0000E6
:100BA000E5FFFFFF0A6802F8010B0A607047D1E910
:100BB00000239A4202D2531C0B601070704710B58C
:100BC000436913B1AFF3008001E0FFF76AFC012035
:100BD00010BD127800F124010A7000224A7001222F
:100BE000EDE711684FF0FF32E9E700002DE9FF5F04
:100BF00015468A460446DFF8AC80F8440027D8E959
:100C000000103E46CDE9001010E03AF816106A4692
:100C100002A800F08AFD411C07D02178890603D57F
:100C2000E269391891420DD80744761C2078800675
:100C300002D5E069B84205DDAE42E6DB3AF81600BF
:100C40000028E2D1A069C01BA0612046FFF702FC8A
:100C5000D8E90010CDE90010002017E03AF818108C
:100C60006A4602A800F061FDB0F1FF3F81460BD05B
:100C700000250DF1080B05E0D4E901211BF8050062
:100C800090476D1C4D45F7D308F10100B0428046F6
:100C9000E4DB206A384420622046FFF7F1FBBDE820
:100CA000FF9F0000DA9003002DE9F0418046D21D3D
:100CB00022F007020025D2E90002F52915A614D07A
:100CC000011E72F1000106DA0023D0EB030063EB92
:100CD000020211A608E0D8F800108B0701D50FA674
:100CE00002E0490701D50EA601251146002408F1AE
:100CF000240704E000F0E2F830323A55641C50EA70
:100D00000102F7D12B46324621464046BDE8F0416C
:100D1000FFF7C2BE000000002D0000002B00000005
:100D20002000000030B4002100F1240408E002F0AB
:100D30000705D208303542EA4372DB086554491C86
:100D400052EA0305F3D10468002310A2250707D552
:100D5000A40600D421B1C46901230DA2641EC4619C
:100D600030BCFFF799BE10B5044621461068FFF766
:100D70008AFE02462046BDE810400023D2E7D21D7D
:100D800022F00701D1E90023CCE7000000000000B9
:100D900030000000F0B40D460188090502D5214C51
:100DA0007C4402E01F4C7C440E34002100F12406F8
:100DB00008E002F00F071209E75D42EA03721B091F
:100DC0007754491C52EA0307F3D102780023120733
:100DD00004D5702D06D009B1022311342246F0BC8F
:100DE000FFF75ABE01231034F8E770B504460D46EC
:100DF00021461068FFF747FE024629462046BDE817
:100E000070400023C6E7D21D22F00703D3E9002378
:100E1000C0E70368126843F0200303600823C3613E
:100E20000023B7E73C8F03002DE9F04791460F46BA
:100E300080460446002614F8015B2DB100F036F818
:100E40000068405DC007F6D12B2D02D02D2D18D0A3
:100E5000641E4A463946204600F018FC27B139681E
:100E6000A14201D1C7F800804FF0020471050BD5F3
:100E70004042002803DDFFF7F9FD0460A007BDE84C
:100E8000F08746F48066E4E70028F8DAFFF7EEFD25
:100E900004606FF00040F2E701491820ABBEFEE7A6
:100EA0002600020000487047D080002010B500F0F6
:100EB00083FC001D10BD00BFCD0C030030B5B0F1A8
:100EC0000A024FEA900E71F100034EEA817EB0EB08
:100ED0000E0061EB91014FEA101E4EEA017E10EB0D
:100EE0000E0041EB11114FEA102E4EEA016E10EB8D
:100EF0000E0041EB11214FEA104E4EEA014E10EB6D
:100F00000E0041EB1141401841F100014FEAD000C1
:100F100040EA41704FEAD10110EB80054FEA8104AD
:100F200044EA907444EB01046D1944EB0404521B31
:100F3000A3414FF0000348BF0A3200D530BD401C2A
:100F400041F1000130BD70472DE9FF4F0C461E46B0
:100F50004FF0FF378BB0D2E90001DDF860800A90D6
:100F60008A46C1F30A5505B93D46002108464FF0AF
:100F70000000BAF1000F00F4400005DA00EB800039
:100F80004FF4400101EA50004FEA9059B9F1010FC6
:100F900000DDB9460A9850EA4A000ED044F61050D7
:100FA000A5F2FF3545432F14B8F1000F1ED075424E
:100FB000291E1EDDC9F100021CE0B8F1010F4FF03F
:100FC000000001D0302103E0F24305E02154401C31
:100FD000B042FBDB30460022002121540B99C1F8BE
:100FE0000880C1E900200FB0BDE8F08FBD1B6D1C6B
:100FF000DEE74A4600DA694206A800F02FFC06AB9D
:1010000093E8070003AB83E8070050460A9900F015
:10101000A0FC8DE80700A0F500501F380090039851
:10102000002D0ADD42F21F014A460844002303A9AD
:101030000390684600F009FF09E0A0F500504A4619
:101040001F38002303A90390684600F013FF8DE8C2
:1010500007000004000C03D04FF0FF30410800E00F
:101060001046B8F1000F03D00022009215461EE092
:10107000751E05D4FFF722FF303262556D1EF9D57B
:10108000B3460122084302D000227F1C04E02078EE
:10109000302801D100227F1E002A099784D01DE04C
:1010A000112D07DAFFF70AFF303262556D1C50EA46
:1010B0000102F5D1084302D00098C8B10EE000212A
:1010C000681E05E0235C625C63542254401E491C88
:1010D0008142F7DBAB46A81B401E0990002004F8B4
:1010E0000B000B98099AC0F80880C0E9002B7AE73A
:1010F00011264FF0000857E72DE9F04F88460446C7
:10110000D21D22F0070191B0D1E90001CDE90A0119
:1011100002F0F8FC02460B98C00F01D02D2007E02A
:101120002068810701D52B2002E0202101EAC000C0
:10113000032A099001D0072A05DB034641462046D1
:1011400000F03EFB0BE12078800601D5E06900E06D
:101150000620B8F1650F814606D0B8F1660F18D0A9
:10116000B8F1670F70D131E00020B9F1110F009094
:1011700001DB112301E009F101030AAA01A90CA86E
:10118000FFF7E2FEDDE90C70002609F10105834658
:1011900047E001204B4600904FF000470AAA01A902
:1011A0000CA8FFF7D1FEDDE90DB00C995D460026D5
:1011B00010B909F101000D18B9EB050003D4C0F115
:1011C000FF3609F10105A5EB09002BE0B9F1010F8C
:1011D00001DA4FF001090020B9F1110F00904846E3
:1011E00001DD112300E003460AAA01A90CA8FFF7BC
:1011F000ABFEDDE90C704D460026834620780007E3
:101200000AD4AB4500DA5D4601A8012D04DD411981
:1012100011F8011C302907D04F4502DA17F1040FED
:1012200004DA012082460FE06D1EEEE7002F02DC9B
:10123000ED1B3E4403E0781CA84200DD7D1CB81B7A
:1012400000F1010A4FF000472078000703D4AA45B7
:1012500001DB4FF0FF3A0021B7F1004F0DF14308D9
:101260008DF8431024D002202B23002F01DA7F4277
:101270002D230A21021EA0F1010000DC5FB197FBC3
:10128000F1FC97FBF1F201FB1C7C17460CF1300CD2
:1012900008F801CDEEE7A8F10100037021880905E7
:1012A00001D5452100E06521A0F1010800F8011CED
:1012B00009980FA9A1EB0807FF1D00B101204119F2
:1012C00001EBEA70A1693844081A401EA061207839
:1012D000C00602D42046FFF7BDF8099828B1D4E92A
:1012E00001219047206A401C20622078C00622D548
:1012F0002046FFF7AFF81EE0002E04DBB34502DD09
:1013000001A8805D00E03020D4E901219047206AE7
:10131000401C2062761CAAF101005FEA000A0AD193
:1013200000F04AFAC0680168405CD4E901219047A6
:10133000206A401C2062281EA5F10105DCDC07E0C4
:10134000D4E9012118F8010B9047206A401C206263
:10135000381EA7F10107F3DC2046FFF791F80320C0
:1013600011B041E62DE9F04F04460D46D21D22F0A2
:10137000070089B0D0E900974846394602F0C2FB21
:101380000246F80F01D02D2307E02068810701D520
:101390002B2302E0202101EAC0038DF820300BB19D
:1013A000012000E00020032A824601D0072A04DB46
:1013B0002946204600F004FA3FE12078800601D457
:1013C0000D2500E0E569C7F30A560D2D49DA002125
:1013D0004FEA175B08464FF00000002F00F4400072
:1013E00007DA00EB80004FF4400100EBD07001EA17
:1013F00060008115012901DD4FF0FF3100224FEA25
:10140000850CBCF1180F06D31346ACF118004FF051
:101410008052C24003E04FF4801323FA0CF30CF126
:101420000C0CBCF1200F04D3ACF1200C09FA0CF029
:1014300001E007FA0CF000294FF0004801DD18B96F
:101440000FE00ED140450CD319EB02095F4121B9E1
:10145000404502D19F4329EA0209BBEB175F00D048
:10146000761C2088000502D57B48784402E07A4843
:101470007844193808AA302302F80A30037C0AF1AC
:101480000101002E0AF1020A53546A4602DC4FF0B1
:10149000300101E04FF031014FF001088DF80010EC
:1014A00002D0A6F2FF3603E059EA470100D06B4EA6
:1014B000002D02DC2178090704D54FF002082E2107
:1014C0008DF80110C44600210BE0C7F303433F0130
:1014D000C35C491C6D1E02F80830052908F101089B
:1014E00001DA002DF1DC00210CE000EB1973491C3E
:1014F0001B786D1E082902F808304FEA091908F117
:10150000010801DA002DF0DC21688B0602D516E017
:10151000A8F10108E04505DD02EB080313F8013CE2
:10152000302BF5D0B8F1000F09DD02EB080313F8FA
:10153000013C2E2B03D1090701D4A8F10108002D8D
:1015400005DD3E2102F808106D1E08F10108407CFF
:10155000002E02F8080008F1010804DA2D20764276
:1015600002F8080002E02B2002F808000A214FF4DC
:101570007A70864208F101080BDB96FBF0F33033FA
:1015800002F8083096FBF0F308F1010800FB13663F
:1015900001E0642E0CDB642096FBF0F3303302F89C
:1015A000083096FBF0F308F1010800FB136601E038
:1015B0000A2E06DB96FBF1F0303002F8080008F145
:1015C000010896FBF1F001FB1060303002F80800D2
:1015D000A16908F1010808EB050202EB0A00081AEC
:1015E000A0612078C00602D42046FEF733FF216AAE
:1015F00008AE01EB0A00206204E0D4E9012116F8EC
:10160000010B9047BAF1010AF7D22078C00602D543
:101610002046FEF71FFF6E4609E016F8010B3E2834
:101620000FD0D4E901219047206A401C2062B8F114
:101630000108F2D22046FEF723FF09B00320BDE8DF
:10164000F08F206A2844206203E0D4E90121302091
:1016500090476D1EEBD3F8E7AD88030002FCFFFF57
:1016600010B5436913B1AFF3008001E0FFF7BEFA94
:10167000012010BD128800F1240182840022C2845E
:101680000122EDE711684FF0FF32E9E72DE9F05F45
:10169000824615468B4600270AF10104B9460078B8
:1016A000302801D09DB113E014F8010B01277828F0
:1016B00003D0582801D045B10AE00DB1102D07D153
:1016C000002714F8010B102502E0082500E00A2588
:1016D0000026B0460EE005FB080005FB06F10127D9
:1016E0001FFA80F801EB1046B6F5803F00D3B946EB
:1016F00014F8010B294600F0A3F80028EBDABBF13F
:10170000000F05D00FB1641E00E05446CBF8004036
:10171000B9F1000F06D0FFF7A9F902210160C81E38
:10172000BDE8F09F48EA0640FAE770B516460C4659
:101730000546FFF7BBFB036893F80101012806D0BB
:10174000FF2C0FD8185D68B101202C7070BDD3F844
:1017500007013246214603F2071303442846BDE839
:10176000704018474FF0FF3070BD70477546FFF767
:1017700099FBAE4605006946534620F007008546B2
:1017800018B020B5FEF7A6FDBDE820404FF00006DA
:101790004FF000074FF000084FF0000B21F0070159
:1017A000AC46ACE8C009ACE8C009ACE8C009ACE89C
:1017B000C0098D467047000000487047F080002047
:1017C0002DE9F0411F46044603260168072A01F46B
:1017D000006004DB08B116A505E016A503E008B11A
:1017E00015A500E015A521F010002060A069C01E1D
:1017F000A0610FB1401EA0612046FEF72BFE4FB145
:10180000D4E9012138469047206A401C2062C01C60
:10181000206206E0206AFAE7D4E9012115F8010BFD
:101820009047761EF8D22046FEF72AFEBDE8F081EA
:101830004E414E006E616E00494E4600696E660074
:101840003A2800D2303820F02002412A01D3A2F1F8
:101850003700884201D34FF0FF3070472DE9F04741
:10186000814616468AB0354878440DC88DE80D008B
:1018700032487844801C03AC0DC884E80D0041F662
:101880009B300844372190FBF1F290FBF1F5A5F174
:10189000800501FB12041B3C02D56442012000E0DC
:1018A0000020DFF898A080460027FA44AAF1BE0A7B
:1018B0000EE0E0070AD03246684607EB47010123F5
:1018C0000AEB810100F0D6FA8DE8070064107F1C56
:1018D000002CEED1194F7F44AE3F19E0E80715D038
:1018E00007EB04100DF1180A90E80E008AE80E00CC
:1018F000C068F04201D1981908903246012306A928
:1019000003A800F0B7FA03AB83E807006D10641C6E
:10191000002DE3D14FF0010332466946B8F1000FC4
:1019200003A802D000F091FA01E000F0A3FAC9E99F
:101930000001C9F808200AB0BDE8F087408503001F
:1019400010B50446AFF300802046BDE81040FEF716
:10195000ACBC5FEA400C08BF91F0000F4FEA8C234B
:101960004FEAC12243EA51514FEA1C5018BF00F51B
:10197000F0404FEA300018BF41F000415FEA6C5C74
:1019800000F02980BCF1FF3F08BF40F08040704765
:10199000130C06BF12044FF0100C4FF0000C130E86
:1019A00004BF12020CF1080C130F04BF12010CF15A
:1019B000040C930F04BF92000CF1020CD30F04BF70
:1019C00052000CF1010C11464FF00002A0F11F0073
:1019D000A0EB0C00704711F0004F08BF704731F0CA
:1019E00000413FF4D5AF0B0C06BF09044FF0100CBB
:1019F0004FF0000C0B0E04BF09020CF1080C0B0F8A
:101A000004BF09010CF1040C8B0F04BF89000CF119
:101A1000020CCB0F04BF49000CF1010CCCF12003E8
:101A2000A0EB0C0022FA03F302FA0CF241EA0301E4
:101A300000F10100704720F07F4C80EA030023F0A2
:101A40007F47ACEB070303F57C5300F0004003F144
:101A5000FF032DE980494FEA154B09B44FEA1443BF
:101A600025EA0B4E24EA03480FF2042606EB13275F
:101A700049083E785FEA320203FB0667C7F50007B4
:101A800007FB06F64FEA54374FEAD64606F1020640
:101A900007FB066CCCF1005C4FEA1C472CEA074CB4
:101AA00007FB06F40CFB06F504EB15464FEA961609
:101AB00034BF00204FF000404FEAD13706FB07FC4F
:101AC0004FEA1C4C0CFB0BF7D21B03FB0CF761EB32
:101AD00007010CFB0EF7B0EB074072EB17420CFB53
:101AE00008F734BFA2EB0742B2EB074261EB1741A4
:101AF0004FEA0C444FEA910706FB07FC4FEA1C4CE7
:101B00000CFB0BF7B0EBC74072EB573203FB0CF743
:101B100034BFA2EBC742B2EBC74261EB57310CFBBB
:101B20000EF7B0EBC70072EB57720CFB08F734BF2F
:101B3000A2EBC702B2EBC70261EB5771039F4FEAFA
:101B4000816141EA921104EBCC044FEAD1374FEAAC
:101B5000826206FB07FC42EA90124FEA80604FEA7D
:101B60001C4C0CFB0BF7D21B03FB0CF761EB0701C2
:101B70000CFB0EF7B0EB074072EB17420CFB08F7BB
:101B800034BFA2EB0742B2EB074261EB17414FEAC9
:101B90008C554FEA910704EB9C2406FB07FC4FEAA7
:101BA0001C4C0CFB0BF7B0EBC74072EB573203FB3E
:101BB0000CF734BFA2EBC742B2EBC74261EB57311F
:101BC0000CFB0EF7B0EBC70072EB57720CFB08F77B
:101BD00034BFA2EBC702B2EBC70261EB577115EB42
:101BE0004C254FEA816141EA92114FEA82624FEA45
:101BF000D13742EA901206FB07FC44F100044FEA99
:101C000080604FEA1C4C0CFB0BF7D21B03FB0CF75C
:101C100061EB07010CFB0EF7B0EB074072EB1742CC
:101C20000CFB08F734BFA2EB0742B2EB074261EBB3
:101C3000174115EB1C154FEA813141EA92414FEAF9
:101C4000823242EA90424FEA80304FEA0C7644F109
:101C5000000448EA03434EEA0B484FF0000EB2EB93
:101C6000080C71EB030724BF624639464EEB0E0E9B
:101C70004FF0000B0018524149414BEB0B0BB2EBFC
:101C8000080C71EB03077BF1000B24BF6246394659
:101C90004EEB0E0E4FF0000B0018524149414BEB3A
:101CA0000B0BB2EB080C71EB03077BF1000B24BFAD
:101CB000624639464EEB0E0E51EA020718BF46F057
:101CC000010616EB0E7655F1000254F1000103D522
:101CD000BDE88901BDE80088BDE88901BDE800488C
:101CE000B619524141EB0101A3F101037047808015
:101CF0007F7E7D7C7B7A7978777676757473727166
:101D000071706F6E6E6D6C6C6B6A6A69686867661D
:101D100066656464636362616160605F5F5E5E5DAF
:101D20005D5C5C5B5B5A5A59595858575756565523
:101D300055555454535352525251515050504F4F85
:101D40004F4E4E4D4D4D4C4C4C4B4B4B4A4A4A49D5
:101D50004949484848474747474646464545454418
:101D60004444444343434342424242414141002BA5
:101D70009C4630D477002BD01CB54FEA370703B40C
:101D80004FF010004FF01001BAF1000F06D0BCF177
:101D9000000FDCBF40F0080040F008014FF00000E9
:101DA0000FBCBDE810400BF1010BBBF1010F08BFE8
:101DB0005FEA170722BF12F1010211F101014FF092
:101DC000004143F1000300F0004043EA0000704787
:101DD000F9D35708D0E746EA064613F1400F4FEA19
:101DE00016461FDD13F1200FDFBF16430A46002100
:101DF00020335B42BED0C3F1200746EA064602FA12
:101E000007F74FEA164646EA0706C3F1200722FA0B
:101E100003F201FA07F721FA03F14FF0000342EA57
:101E20000702A7E746EA020646EA06464FEA1646D2
:101E300046EA0106BCBF46EA0646360C4FF00003F0
:101E40004FF000024FF0000194E72DE9804C9A46D4
:101E5000934670B491E8380007C831EA400C48BF97
:101E600034EA430C03D5FFF7E6FDFFF780FFF0BC33
:101E7000BDE8008C2DE9804C9A46934670B491E8F9
:101E8000380007C810F0804F08BF13F0804F03D10F
:101E900000F005F8FFF76BFFF0BCBDE8008C20F008
:101EA0007F4780EA030023F07F4C07EB0C03A3F588
:101EB0007C5300F00040A3F1FE0392F0000F00F00D
:101EC000B38095F0000F00F077802DE901494FEACB
:101ED00011404FEA144621EA004800FB06FC24EAC0
:101EE000064708FB06F607FB08F800FB07F718EBA8
:101EF00006484CEB164C4FEA124B18EB07484FEADA
:101F000015464CEB174022EA0B4E0BFB06FC25EA6C
:101F100006470EFB06F607FB0EFE0BFB07F71EEB54
:101F2000064E4CEB164C4FF000061EEB074E4CEBEA
:101F3000174B18EB0B0840F1000018EB0E0B58EB99
:101F4000000840F100008F1A4FF000013CBFC94368
:101F5000661B14BFB5EB040C00213CBFC943F61B44
:101F60004FEA17444EEA8E0E27EA04454FEA1C4713
:101F700004FB07622CEA074C05FB07F70CFB05F690
:101F800004FB0CFC16EB074642EB174216EB0C4623
:101F900042EB1C421BEB060658EB0202414146EAAB
:101FA0009E0601D5BDE80189B619524141EB0101F8
:101FB000A3F10103BDE801894FEA14454FEA114737
:101FC00024EA054621EA074C05FB07F406FB07F760
:101FD0000CFB06F105FB0CFC11EB074144EB17442D
:101FE0004FEA124711EB0C4144EB1C4422EA074C28
:101FF00005FB07F206FB07F70CFB06F605FB0CFCDE
:1020000016EB074642EB174216EB0C4642EB1C451B
:102010006A1854F1000148BF7047B619524141EBAC
:102020000101A3F10103704795F0000F37D04FEA8B
:1020300011424FEA144721EA024624EA074C02FB08
:1020400007F106FB07F70CFB06F402FB0CFC14EB94
:10205000074441EB17414FEA154714EB0C4441EBA1
:102060001C4125EA074C02FB07F506FB07F70CFBB2
:1020700006F602FB0CFC16EB074645EB174516EB84
:102080000C4645EB1C42121951F1000148BF704744
:10209000B619524141EB0101A3F1010370474FEA28
:1020A00014454FEA114724EA054621EA074C05FB8F
:1020B00007F106FB07F70CFB06F24FF0000605FBE5
:1020C0000CFC12EB074241EB174112EB0C4251EBB7
:1020D0001C4148BF7047921841EB0101A3F1010375
:1020E0007047000008B50121082001F06FF840207A
:1020F000ADF8000003208DF8020014208DF80300D5
:102100006946094800F08FFB8020ADF80000694661
:10211000054800F088FB8021034800F01AFC4021AC
:10212000014800F016FC08BD000C014070B50446E3
:1021300000F07CFCA02000F04FFC00F0ABFC20463F
:1021400000F04AFC00F0A6FC00F070FCA12000F0BA
:1021500043FC00F09FFC00F017FC054600F0FEFB7E
:1021600000F080FC284670BD38B505460C4600F0EE
:102170005DFCA02000F030FC00F08CFC284600F054
:102180002BFC00F087FC204600F026FC00F082FCCF
:1021900000F068FC0020009002E00098401C0090D5
:1021A0004CF2503100988842F7D338BD00BFFEE7AB
:1021B0007047000010B500200449088004490870E9
:1021C0004FF480610348FEF7C3FB10BD46010020B9
:1021D000480100207C03002010B50446214604A0DD
:1021E00000F00CF940F6B83000F048FA10BD0000DD
:1021F00041542B434950434C4F53453D25750000F6
:1022000000B587B00121880400F0D0FF012108202B
:1022100000F0DCFF4FF48070ADF8180003208DF85B
:102220001A0010208DF81B0006A92C4800F0FBFABC
:102230004FF48071294800F08CFB4FF40070ADF82A
:10224000180006A9254800F0EEFA4FF40071234863
:1022500000F07FFB4FF48060ADF8180018208DF877
:102260001B0006A91D4800F0DEFA4FF40060ADF82F
:10227000180004208DF81B0006A9184800F0D3FAB6
:102280004FF4E13002900020ADF80C00ADF80E00E4
:10229000ADF81000ADF814000C20ADF8120002A942
:1022A0000F4801F071F901210D4801F005F90122F3
:1022B00040F225510A4801F042F927208DF8040028
:1022C00001208DF805008DF806008DF8070001A8A3
:1022D00000F022FFFFF76EFF07B000BD000C0140C9
:1022E000004800402DE9F84F8146884692463C4818
:1022F000007810B90020BDE8F88F0020009002E0BF
:102300000098401C0090374900988842F8D300207C
:1023100033490870DFF8D0B034A15846FEF701FA0F
:1023200004461CB9FFF746FF0020E4E7641D204681
:10233000FEF7E0F98AF800002C212046FEF7E7F9C5
:1023400004461CB9FFF736FF0020D4E7641C3A218D
:102350002046FEF7DCF904461CB9FFF72BFF0020EE
:10236000C9E7641C23A12046FEF7DBF906461EB927
:10237000FFF720FF0020BEE7361D354600E06D1C4C
:10238000287840B12878202805D028780D2802D058
:1023900028780A28F3D1A81B87B24FB92F2089F8D3
:1023A0000000002089F801000120A8F8000012E0D8
:1023B000B8F80000401EB84203DAB8F80000401E2A
:1023C00087B23A4631464846FEF74BFA002009F8F4
:1023D0000700A8F80070FFF7EDFE01208BE7000072
:1023E00048010020801A06007C0300202B4950443D
:1023F0002C00000047455420000000000FB410B529
:10240000C2B045A801904FF4807102A8019B449A84
:10241000FDF7EAFF002001900D4908800D49087082
:102420004FF480610C48FEF793FA02A8FEF7AFF96B
:1024300084B2214602A82FF097F90D202FF084F9DD
:102440000A202FF081F942B010BC5DF814FB0000A7
:1024500046010020480100207C0300202DE9F041C6
:10246000ADF6080D06460C462046FEF790F91FFA19
:1024700080F84346324A4FF4006102A80094FDF709
:10248000CDFF0746FFF796FE3A4631462DA0FFF7EF
:10249000B5FF4FF4FA5521E02F480078D0B1002065
:1024A0002D4908702DA12E48FEF73BF900B117E029
:1024B0002CA12B48FEF735F920B100200DF6080DB0
:1024C000BDE8F0810020294908804FF4806124484C
:1024D000FEF73EFA012006F019FA6D1E002DDBD141
:1024E00000BF0DB90020E9E7B9B202A82FF03CF90E
:1024F00042F210751FE018480078C0B1002016495C
:1025000008701BA11648FEF70CF908B10120D5E7A9
:1025100014A11348FEF705F908B10020CEE700200A
:10252000124908804FF480610D48FEF711FA01202E
:1025300006F0ECF96D1E002DDDD10020BEE7000095
:10254000CCA2030841542B43495053454E443D25EA
:10255000752C256400000000480100203E000000AA
:102560007C0300204552524F5200000046010020DB
:1025700053454E44204F4B0070B504460D464FF472
:102580008071224800F0E3F9642006F0BFF94FF4AF
:1025900080711E4800F0DDF940F6B83006F0B6F95B
:1025A000FFF708FE1AA0FFF729FF40F6B83000F049
:1025B00065F808B9002070BD16A0FFF71FFF40F6B0
:1025C000B83000F05BF808B90020F4E72A4621464D
:1025D00013A0FFF713FF41F2883000F04FF808B95D
:1025E0000020E8E714A0FFF709FF40F6B83000F03C
:1025F00045F808B90020DEE712A0FFF7FFFE40F61D
:10260000B83000F03BF80120D5E70000000C014095
:102610004154000041542B43574D4F44453D320037
:1026200041542B43575341503D222573222C2225E0
:1026300073222C312C33000041542B4349504D550B
:10264000583D310041542B43495053544F3D3000C5
:1026500010B50446214604A0FFF7D0FE41F28830B1
:1026600000F00CF810BD000041542B434950534575
:10267000525645523D312C257500000010B50446D8
:10268000214602A000F004F810BD00004F4B0000EE
:1026900070B505460C4626E015480078F8B10020D4
:1026A0001349087029461348FEF73BF808B101208A
:1026B00070BD11A10F48FEF734F808B10020F7E70C
:1026C0000FA10C48FEF72DF808B10020F0E700201C
:1026D0000D4908804FF480610648FEF739F9012062
:1026E00006F014F9641E002CD6D10020E0E70000AB
:1026F000480100207C0300204552524F5200000048
:102700004641494C000000004601002051B18200C2
:10271000A2F1C042126842F001038200A2F1C0425D
:10272000136009E08200A2F1C0421268034B1A4014
:102730008300A3F1C0431A6070470000FEFF0F0042
:10274000D0E901121143C268114302691143426981
:10275000114382691143C2691143026A1143426AFB
:102760001143826A1143C26A1143026B114302682A
:102770009200A2F1C0421160816808290BD1016862
:102780008900A1F1C041096841F040020168890057
:10279000A1F1C0410A60416B0968426B526841EA8D
:1027A0000211426B926841EA0221426B928941EA2E
:1027B0000241426B128A41EA0251426B127D41EAA8
:1027C0000261426B926911430268521C9200A2F1AD
:1027D000C0421160C16AB1F5804F1BD1816B09689D
:1027E000826B526841EA0211826B926841EA0221CF
:1027F000826B128A41EA0251826B127D41EA0261C8
:10280000826B9269114302689200A2F1C042C2F841
:10281000041107E06FF0704201688900A1F1C04126
:10282000C1F8042170472DE9F04102460025002639
:10283000002000230024002791F803C00CF00F05AE
:1028400091F803C00CF0100CBCF1000F03D091F80C
:1028500002C04CEA050591F800C0BCF1000F31D070
:10286000146800202BE04FF0010C0CFA00F3B1F8D3
:1028700000C00CEA03069E4220D183004FF00F0CEB
:102880000CFA03F7BC4305FA03FC4CEA040491F884
:1028900003C0BCF1280F06D14FF0010C0CFA00FC6C
:1028A000C2F814C00AE091F803C0BCF1480F05D18A
:1028B0004FF0010C0CFA00FCC2F810C0401C0828B4
:1028C000D1D31460B1F800C0BCF1FF0F34DD5468FF
:1028D00000202EE000F1080C4FF0010808FA0CF37C
:1028E000B1F800C00CEA03069E4221D183004FF0EC
:1028F0000F0C0CFA03F7BC4305FA03FC4CEA040482
:1029000091F803C0BCF1280F05D100F1080C08FABA
:102910000CF8C2F8148091F803C0BCF1480F07D13D
:1029200000F1080C4FF0010808FA0CF8C2F810800A
:10293000401C0828CED35460BDE8F0810246002038
:1029400093680B400BB1012000E00020704741610B
:1029500070470161704700BFFEE7000010B500F04E
:10296000BDFC80210748FFF7F4FF40210548FFF731
:10297000F0FF052005F0DBFF40210248FFF7E7FFED
:1029800010BD0000000C014070B5002400F098FC60
:10299000002518E06006040E40210E48FFF7D9FF1D
:1029A000052005F0C4FF80210A48FFF7C7FF08B1E2
:1029B00044F0010440210748FFF7C9FF052005F056
:1029C000B6FF681CC5B2082DE4DB00F087FC20468A
:1029D00070BD0000000C014070B5044600F07EFCA4
:1029E00000251DE004F0800020B180210E48FFF793
:1029F000B0FF03E080210C48FFF7A9FF6006040E3A
:102A000040210948FFF7A5FF052005F090FF402170
:102A10000548FFF79CFF052005F089FF681CC5B23B
:102A2000082DDFDB70BD0000000C014010B500F088
:102A300055FC80210A48FFF78CFF40210848FFF72A
:102A400088FF052005F073FF80210548FFF77FFF11
:102A5000052005F06CFF40210148FFF778FF10BD0D
:102A6000000C014010B500F039FC80210848FFF748
:102A70006EFF40210648FFF76CFF052005F057FF69
:102A800080210348FFF765FF052005F050FF10BDCA
:102A9000000C014010B500F013FC40210A48FFF77C
:102AA00058FF052005F043FF80210748FFF746FF48
:102AB000044640210448FFF74AFF00F00FFC0CB920
:102AC000012010BD0020FCE7000C014010B50446B9
:102AD0002CB14FF480510548FFF739FF04E04FF463
:102AE00080510248FFF735FF10BD0000001401407F
:102AF00001B502E00098401E009000980028F9D12E
:102B000008BD000070B506460C461546084800880A
:102B100086420BDA07480088844207DA21463046AD
:102B200000F0E2FA2946012000F035F870BD0000FF
:102B30004C0000204E00002000B597B00121080293
:102B400000F024FB012001900420039080060790F0
:102B500000200290049005900690089009900820AB
:102B60000A9010200B9000200C900E900F90109067
:102B70004FF480501190002012901390149001A8EF
:102B80001590169008A8FFF7DBFD01210020FFF744
:102B9000BDFD17B000BD70B504460D4600262C20C3
:102BA00000F0ACFA00BF03E0284600F0ABFA761C58
:102BB000A642F9D370BD000008B50121602000F0E5
:102BC00005FB03208DF8020018208DF803004FF458
:102BD0008040ADF8000069465B48FFF724FE4FF4E3
:102BE0000040ADF8000069465748FFF71CFE012081
:102BF000ADF8000069465448FFF715FE0220ADF815
:102C0000000069465048FFF70EFE8020ADF8000036
:102C100069464E48FFF707FE4FF48070ADF800009C
:102C200069464A48FFF7FFFD4FF40070ADF8000019
:102C300069464648FFF7F7FD4FF48060ADF80000A5
:102C400069464248FFF7EFFD4FF40060ADF8000021
:102C500069463E48FFF7E7FD4FF48050ADF80000AD
:102C600069463A48FFF7DFFD4FF40050ADF8000029
:102C700069463648FFF7D7FD4FF48040ADF80000B5
:102C800069463248FFF7CFFD4FF40040ADF8000031
:102C900069462E48FFF7C7FD4FF48070ADF800007D
:102CA00069462948FFF7BFFD4FF40070ADF80000FA
:102CB00069462548FFF7B7FD4FF48060ADF8000086
:102CC00069462148FFF7AFFD03208DF80200182068
:102CD0008DF803001020ADF8000069461A48FFF790
:102CE000A2FD2020ADF8000069461748FFF79BFDC4
:102CF0008020ADF8000069461348FFF794FD4FF4BB
:102D00000060ADF8000069460F48FFF78CFD102009
:102D10008DF8030003208DF802000220ADF80000BA
:102D200069460A48FFF77FFD10208DF80300032055
:102D30008DF802004FF48050ADF80000694602485B
:102D4000FFF771FD08BD00000014014000180140AC
:102D500010B50446072C00DD10BD2848047020463D
:102D600004EBD0714910A4EB410139B9F02024499A
:102D700008804FF4A0702349088006E04FF4A0704B
:102D80001F490880F0201F490880362000F0B6F95E
:102D9000082141EA441000F0B5F92A2000F0AEF90C
:102DA000002000F0AFF9002000F0ACF914490988C8
:102DB000491EC1F3072000F0A5F911490978491E01
:102DC000C8B200F09FF92B2000F098F9002000F025
:102DD00099F9002000F096F90A490988491EC1F3C3
:102DE000072000F08FF907490978491EC8B200F0A2
:102DF00089F92C2000F082F900BFADE750000020D7
:102E00004C0000204E00002010B5FFF7D5FEFFF764
:102E100093FE0120FFF75AFE00F052F900F038F857
:102E200002480078FFF794FF10BD0000500000201A
:102E30002DE9F04104460D4616461F462A2000F0B3
:102E40005DF9201200F05EF9E0B200F05BF9A11923
:102E5000491EC1F30F2000F055F9A119491EC8B24F
:102E600000F050F92B2000F049F9281200F04AF93F
:102E7000E8B200F047F9E919491EC1F30F2000F04C
:102E800041F9E919491EC8B200F03CF9BDE8F081EA
:102E900010B5CF2000F032F9002000F033F9812086
:102EA00000F030F9302000F02DF9ED2000F026F987
:102EB000642000F027F9032000F024F9122000F02C
:102EC00021F9812000F01EF9E82000F017F9852093
:102ED00000F018F9102000F015F9782000F012F930
:102EE000CB2000F00BF9392000F00CF92C2000F079
:102EF00009F9002000F006F9342000F003F902205F
:102F000000F000F9F72000F0F9F8202000F0FAF8BE
:102F1000EA2000F0F3F8002000F0F4F8002000F0C0
:102F2000F1F8B12000F0EAF8002000F0EBF81B20E7
:102F300000F0E8F8B62000F0E1F80A2000F0E2F82E
:102F4000A22000F0DFF8C02000F0D8F8352000F013
:102F5000D9F8C12000F0D2F8112000F0D3F8C52034
:102F600000F0CCF8452000F0CDF8452000F0CAF87C
:102F7000C72000F0C3F8A22000F0C4F8F22000F04F
:102F8000BDF8002000F0BEF8262000F0B7F80120C0
:102F900000F0B8F8E02000F0B1F80F2000F0B2F82F
:102FA000262000F0AFF8242000F0ACF80B2000F051
:102FB000A9F80E2000F0A6F8092000F0A3F854208C
:102FC00000F0A0F8A82000F09DF8462000F09AF844
:102FD0000C2000F097F8172000F094F8092000F07A
:102FE00091F80F2000F08EF8072000F08BF80020F9
:102FF00000F088F8E12000F081F8002000F082F86D
:10300000192000F07FF81B2000F07CF8042000F06D
:1030100079F8102000F076F8072000F073F82A20E5
:1030200000F070F8472000F06DF8392000F06AF8E1
:10303000032000F067F8062000F064F8062000F096
:1030400061F8302000F05EF8382000F05BF80F20C7
:1030500000F058F8362000F051F8C82000F052F87F
:103060002A2000F04BF8002000F04CF8002000F07F
:1030700049F8002000F046F8EF2000F043F82B203C
:1030800000F03CF8002000F03DF8002000F03AF895
:10309000012000F037F83F2000F034F83A2000F02B
:1030A0002DF8552000F02EF8112000F027F80348E5
:1030B000FFF71EFD292000F021F810BDFCBF020023
:1030C00010B502210748FFF742FC40F6FF20FFF74A
:1030D0000FFD02210348FFF73CFC40F6FF20FFF7FD
:1030E00007FD10BD0018014070B504460D460123D0
:1030F0001A4629462046FFF79BFE70BD4FF0C0419F
:103100000880704701490880704700000000026095
:1031100000BFFEE77047000070B5002100230F22BA
:10312000C47804B3154C246804F4E064C4F5E06486
:10313000210AC1F10403CA40447804FA03F18478F7
:103140001440214309010E4C0678A155047804F07F
:103150001F050124AC4005786D11AD0005F1E02597
:10316000C5F8004109E0047804F01F050124AC40D3
:10317000044D0678761145F8264070BD0CED00E050
:1031800000E400E080E100E07047000029B1064A59
:1031900052690243044B5A6104E0034A5269824374
:1031A000014B5A61704700000010024029B1064AE5
:1031B000D2690243044BDA6104E0034AD2698243D4
:1031C000014BDA61704700000010024029B1064A45
:1031D00092690243044B9A6104E0034A9269824374
:1031E000014B9A61704700000010024030B5002189
:1031F0000022002400232D4D6D6805F00C0121B143
:10320000042905D0082923D105E0294D056022E0D5
:10321000274D05601FE0254D6D6805F47012234DA4
:103220006D6805F48034022505EB92421CB9214DEE
:10323000554305600BE01D4D6D6805F400351DB16B
:103240001C4D5543056002E0194D5543056002E0F1
:10325000174D056000BF00BF144D6D6805F0F0010B
:103260000909154D6B5C0568DD4045600F4D6D68C3
:1032700005F4E061090A104D6B5C4568DD4085602E
:103280000A4D6D6805F46051C90A0B4D6B5C4568C9
:10329000DD40C560054D6D6805F44041890B074D63
:1032A0006B5CC568B5FBF3F5056130BD00100240ED
:1032B00000127A0000093D000000002010000020EC
:1032C00008B58020ADF8000004208DF803006946A1
:1032D0000148FFF7A8FA08BD000C014008B580209E
:1032E000ADF8000003208DF8020014208DF80300D3
:1032F00069460248FFF797FA08BD0000000C01403C
:10330000704710B500F002F810BD00000CB50020A9
:10331000019000903348006840F4803031490860E3
:1033200000BF3048006800F4003000900198401C55
:103330000190009818B90198B0F5A06FF1D1294813
:10334000006800F4003010B10120009001E000207E
:1033500000900098012843D12348006840F01000F5
:10336000214908600846006820F00300086008460C
:10337000006840F0020008601A4840681949486037
:103380000846406848600846406840F480604860ED
:103390000846406820F47C1048600846406840F4C5
:1033A000E81048600846006840F08070086000BF80
:1033B0000C48006800F000700028F9D00948406807
:1033C00020F00300074948600846406840F00200CA
:1033D000486000BF0348406800F00C000828F9D19D
:1033E0000CBD0000001002400020024070470000A9
:1033F00010B51348006840F0010011490860084604
:103400004068104908400E494860084600680E4967
:1034100008400B4908600846006820F480200860D6
:103420000846406820F4FE0048604FF41F008860A2
:10343000FFF767FF4FF000600449086010BD00000F
:10344000001002400000FFF8FFFFF6FE08ED00E06C
:1034500010B540F22551144800F047F800B910BDEE
:10346000114800F0FDF8C4B21048008840F2FF3166
:1034700088420ADA0D490888411C0C4A11800C491F
:103480000C5400201288885407E000200749088067
:103490004FF480610648FDF75BFA0A2C02D1012047
:1034A0000449087000BFDAE70048004046010020E8
:1034B0007C0300204801002021B1828942F400529F
:1034C000828104E082894DF6FF731A408281704741
:1034D00002460020B1F5007F00D100BF13880B40E9
:1034E0000BB1012000E00020704770B502460024B7
:1034F00000230025002040F66A16B14200D100BF2B
:10350000C1F3421501F01F03012606FA03F3012D52
:1035100002D19689334006E0022D02D1168A33404B
:1035200001E0968A33400C12012606FA04F416884C
:10353000344013B10CB1012000E0002070BDF0B5A3
:103540000346002400260025002040F66A17B942F1
:1035500000D100BF1846C1F3421401F01F06012735
:1035600007FA06F5012C01D10C3004E0022C01D140
:10357000103000E014301AB107682F43076002E0F2
:103580000768AF430760F0BD2DE9F04786B00546F8
:103590000E460024A24600BFA1460027B08900B114
:1035A00000BF2F462C8A4CF6FF700440F08804437D
:1035B0002C82AC894EF6F3100440B0883189084360
:1035C000718908430443AC81AC8A4FF6FF40044044
:1035D000B0890443AC8201A8FFF708FE1F48874268
:1035E00002D1DDF810A001E0DDF80CA0A88900F4FC
:1035F000004040B10AEBCA0000EB0A1031684900F4
:10360000B0FBF1F807E00AEBCA0000EB0A103168E2
:103610008900B0FBF1F86420B8FBF0F00401200948
:10362000642101FB1089A88900F4004040B13220D8
:1036300000EBC900B0FBF1F000F00700044308E024
:10364000322000EB09106421B0FBF1F000F00F0014
:1036500004432C8106B0BDE8F0870000003801402B
:1036600001468888C0F308007047C1F308028280D1
:10367000704700BFFEE701B5002007E00C2100BF46
:103680000A1EA1F10103D9B2FAD1401C0099884267
:10369000F4D308BD2DE9FC5F05460C4601266846BB
:1036A00000F0BEF8002865D0BDF902002EF014FB32
:1036B00083463248007800EB400004EBC0004168CC
:1036C00058462EF021FB8146BDF900002EF004FB88
:1036D00083462A48007800EB400054F830105846E2
:1036E0002EF012FB824649462EF078FA8046234897
:1036F000007800EB400004EBC000816840462EF0EB
:103700006DFA07462EF0CCFA00B22880BDF902000F
:103710002EF0E2FA83461948007800EB400004EBF3
:10372000C000016958462EF0EFFA8146BDF900004D
:103730002EF0D2FA83461148007800EB400004EBEB
:10374000C000C16858462EF0DFFA824649462EF086
:1037500045FA80460948007800EB400004EBC000C1
:10376000416940462EF03AFA07462EF099FA00B227
:10377000688000E000263046BDE8FC9F5000002035
:1037800008B501216020FFF721FD0120ADF8000000
:103790008DF8020010208DF8030069461A48FFF7E3
:1037A00042F80420ADF8000069461748FFF73BF8DF
:1037B0000820ADF8000001208DF8020048208DF8A7
:1037C000030069461048FFF72EF84FF40050ADF89B
:1037D000000001208DF8020010208DF803006946DA
:1037E0000A48FFF720F84FF400510848FFF7AFF8F8
:1037F0001020ADF8000048208DF80300694602480B
:10380000FFF711F808BD0000001801400014014046
:1038100010B50446204600F043F900F0C1F810BD91
:103820002DE9F0478CB00646002528216846FDF7B3
:10383000B1F800BF0AA90BA800F09EF8BDF92C0052
:103840002DF81500BDF9281005A820F81510681CE2
:10385000C5B210214648FFF771F808B90A2DE9DB17
:1038600010214348FFF76AF810B100204149087061
:103870000A2D7BD1BDF90070B846BDF91490CA4637
:1038800001240EE03DF91400B84202DA3DF914704B
:1038900005E03DF91400404501DD3DF91480601C50
:1038A000C4B20A2CEEDB012412E005A830F91400A2
:1038B000484503DA05A830F9149007E005A830F967
:1038C0001400504502DD05A830F914A0601CC4B2F4
:1038D0000A2CEADBBDF90000BDF902100844BDF96D
:1038E00004100844BDF906100844BDF90810084446
:1038F000BDF90A100844BDF90C100844BDF90E10BA
:103900000844BDF910100844BDF912100844C01B4A
:10391000A0EB0800C01000B23080BDF91410BDF952
:1039200016000144BDF918000144BDF91A00014414
:10393000BDF91C000144BDF91E000144BDF9200081
:103940000144BDF922000144BDF924000144BDF940
:1039500026000844A0EB0900A0EB0A00C01000B24A
:10396000708001200CB0BDE8F087FFE70020F9E788
:10397000001801401C0100202DE9F04104460D46CD
:103980009020FFF745FF06B20120FFF774FED0201C
:10399000FFF73EFF07B226802F80BDE8F0810000D0
:1039A00070B5002504211148FEF7D1FF01210F4811
:1039B000FEF7CFFF002414E001210C48FEF7C7FFFB
:1039C00008210A48FEF7BAFF0646C4F10B0006FAC2
:1039D00000F0284385B201210448FEF7BAFF601CBD
:1039E000C4B20C2CE8DB284670BD00000018014072
:1039F00010B500242748007820B1012811D00228F2
:103A00003FD12FE010212448FEF798FF20B9012074
:103A100020490870002403E000201E49087000249B
:103A200034E010211C48FEF789FFA0B91B4800684C
:103A3000401C1A49086008460068022806D9002080
:103A4000086002201349087001240AE0012011498E
:103A50000870002405E00020104908600D49087036
:103A6000002413E010210C48FEF768FF20B9022063
:103A700008490870012403E000200649087000246A
:103A800004E0002003490870002400BF00BF204666
:103A900010BD00001D010020001801402001002081
:103AA00070B5054604211648FEF751FF0121144860
:103AB000FEF74DFF00241FE0C4F1070045FA00F0B7
:103AC00000F0010020B104210D48FEF742FF03E0A1
:103AD00004210B48FEF73BFF0520FFF7CCFD012139
:103AE0000748FEF736FF0520FFF7C5FD0121044812
:103AF000FEF72DFF601CC4B2082CDDDB70BD00009A
:103B000000180140490050EAC12018BF04204A0DA6
:103B100018BF40F0010040F2FF72B2EB515F08BFE6
:103B200040F00200012808BF0520704770B5044628
:103B3000002508E02168481C20600878303805EB33
:103B4000850100EB41052168087800F004F80028A1
:103B5000F0D1284670BD0146302903DB392901DC4C
:103B6000012070470020FCE730380A2801D20120EC
:103B7000704700207047000010B54021074800F052
:103B80001BFF00221E21064826F054FD054908604F
:103B900002F072FA00200449087010BDF8080020F5
:103BA00045610008BC020020B802002030B5034681
:103BB000B1F90040B2F90050AC4202DDB1F9004069
:103BC00001E0B2F900401C80B1F90240B2F90250A4
:103BD000AC4202DDB1F9024001E0B2F902405C8082
:103BE000B1F90440B2F90450AC4202DAB1F9044030
:103BF00001E0B2F904409C80B1F90640B2F90650E8
:103C0000AC4202DAB1F9064001E0B2F90640DC80CC
:103C10000120B3F90040B3F90450AC4205DCB3F91C
:103C20000240B3F90650AC4200DD002030BDF8B5CB
:103C300004460D4616460027B4F90000B5F90010F9
:103C4000884212DBB4F90200B5F9021088420CDB9D
:103C5000B4F90400B5F90410884206DCB4F9060092
:103C6000B5F90610884200DC01270FB90020F8BD25
:103C70000EB90120FBE72088ADF800006088ADF8A0
:103C8000020032466946284600F0A7F808B900202D
:103C9000EDE7A088ADF800006088ADF8020032467C
:103CA0006946284600F099F808B90020DFE7208827
:103CB000ADF80000E088ADF80200324669462846BB
:103CC00000F08BF808B90020D1E7A088ADF800001B
:103CD000E088ADF8020032466946284600F07DF8DB
:103CE00008B90020C3E70120C1E70246B2F900008D
:103CF000B1F90430984213DCB2F90400B1F9003094
:103D000098420DDBB2F90200B1F90630984207DCA7
:103D1000B2F90600B1F90230984201DB0120704788
:103D20000020FCE7F8B504460D461646B4F9040039
:103D3000B5F90010884211DBB4F90600B5F902109C
:103D400088420BDBB4F90000B5F90410884205DCA9
:103D5000B4F90200B5F90610884201DD0120F8BD72
:103D60000EB90020FBE72088ADF800006088ADF8B0
:103D7000020032466946284600F02FF808B10020BC
:103D8000EDE7A088ADF800006088ADF8020032468B
:103D90006946284600F021F808B10020DFE72088B6
:103DA000ADF80000E088ADF80200324669462846CA
:103DB00000F013F808B10020D1E7A088ADF80000AA
:103DC000E088ADF8020032466946284600F005F862
:103DD00008B10020C3E70120C1E72DE9FC5F0546DB
:103DE0000E4614464FF0000AB6F90000B5F900106F
:103DF000884213DBB6F90000B5F9041088420DDCE7
:103E0000B6F90200B5F90210884207DBB6F90200E4
:103E1000B5F90610884201DC4FF0010ABAF1000F33
:103E200002D10020BDE8FC9F002C01DC0120F9E755
:103E3000284612F0E1FC834600EBDB704710284671
:103E400012F052FC834600EBDB704FEA60084745F6
:103E500001DA384600E0404681464C4500DD4C46DC
:103E60002888ADF800002888204400B2ADF804008E
:103E70006888ADF802006888204400B2ADF80600FA
:103E8000002231466846FFF7A8FF80B1BDF8040064
:103E9000204400B2ADF80400BDF80600204400B292
:103EA000ADF806003146684623F082FABAE7E888A2
:103EB000001B00B2ADF80200E888ADF80600002251
:103EC00031466846FFF789FF80B1BDF80400204401
:103ED00000B2ADF80400BDF80200001B00B2ADF85E
:103EE00002003146684623F063FA9BE7A888001B6E
:103EF00000B2ADF80000A888ADF8040000223146F9
:103F00006846FFF76AFF80B1BDF80000001B00B2F1
:103F1000ADF80000BDF80200001B00B2ADF80200D1
:103F20003146684623F044FA7CE76888ADF8020021
:103F30006888204400B2ADF8060000223146684689
:103F4000FFF74BFF80B1BDF80000001B00B2ADF8D9
:103F50000000BDF80600204400B2ADF8060031466E
:103F6000684623F025FA5DE701205BE710B5B1F95B
:103F70000030B2F90040A34202DAB1F9003001E0AA
:103F8000B2F900300380B1F90230B2F90240A34225
:103F900002DAB1F9023001E0B2F902304380B1F93E
:103FA0000430B2F90440A34202DDB1F9043001E06B
:103FB000B2F904308380B1F90630B2F90640A34269
:103FC00002DDB1F9063001E0B2F90630C38010BD60
:103FD0002DE9FF41044626F0B5FA0546002003907E
:103FE00034B14749E0680860204626F03BFC03E016
:103FF00015F09CFA4249086041490968086923F0B4
:104000006BF83F480068406920B13D49096848693C
:1040100023F062F83A490968C86923F05DF8384925
:104020000968086A23F058F835480068006940B903
:10403000002033490968A1F8500100BF00BFBDE866
:10404000FF8123F081FA28F023FC2D480068B0F8A6
:10405000500100284BD02A4800680068007CC0F35B
:104060004000E8B12648006815F0DEFA401E06B2AE
:104070002348006815F072FA401E07B23B46002242
:10408000114601A8009612F0FCFB01A81C49096822
:104090000968C96B48601A48006805F05FFD00BFF9
:1040A0004FF480711648006830301DF01DF9202152
:1040B0001348006800F598701DF016F900201049AB
:1040C0000968A1F85001284626F02EFA03900C4802
:1040D00000680068406A50B10949096808680849E1
:1040E000096809684B6A07490A68039998471CF0F0
:1040F00073FE00F03FF800F007F800BF9FE70000F4
:10410000780100207401002010B5002416E0C4EBF3
:10411000C4000C4951F8200030B1C4EBC401094A75
:1041200052F821001CF00AFFC4EBC401054A02EB5F
:1041300081001C211DF0D8F8601CC4B2042CE6DB01
:1041400010BD0000D40900200146094A10680BE0A8
:1041500042688A4202D002688A4204D1027E22F07A
:104160000102521C027640690028F1D1704700001C
:104170004C0100207047000010B50421014800F0F8
:104180001BFC10BDEC08002010B51C21014800F0FC
:1041900013FC10BD040900202DE9FF4704460D461D
:1041A00016461F46DDE90C896FB9B8F5807F0AD144
:1041B000002020806080681E00B2A080701E00B2C7
:1041C000E080BDE8FF8700200090019002900390FE
:1041D000ADF80450ADF80A60ADF80C50ADF80E60C3
:1041E0004B4642463946684623F018F84B4642464D
:1041F000394601A823F012F84B464246394602A838
:1042000023F00CF84B464246394603A823F006F843
:10421000BDF90000BDF90410884202DABDF90000C2
:1042200001E0BDF90400BDF90810BDF90C20914270
:1042300002DABDF9081001E0BDF90C1088420BDA72
:10424000BDF90000BDF90410884202DABDF9000092
:104250000DE0BDF904000AE0BDF90800BDF90C103D
:10426000884202DABDF9080001E0BDF90C00801EA9
:1042700000B22080BDF90000BDF90410884202DDC3
:10428000BDF9000001E0BDF90400BDF90810BDF959
:104290000C20914202DDBDF9081001E0BDF90C10BF
:1042A00088420BDDBDF90000BDF90410884202DD33
:1042B000BDF900000DE0BDF904000AE0BDF90800F9
:1042C000BDF90C10884202DDBDF9080001E0BDF91E
:1042D0000C00801C00B2A080BDF90210BDF90600E0
:1042E000814202DABDF9020001E0BDF90600BDF924
:1042F0000A20BDF90E108A4202DABDF90A1001E067
:10430000BDF90E1088420BDABDF90210BDF90600A6
:10431000814202DABDF902000DE0BDF906000AE0B3
:10432000BDF90A10BDF90E00814202DABDF90A009A
:1043300001E0BDF90E00801E00B26080BDF90210E0
:10434000BDF90600814202DDBDF9020001E0BDF9C0
:104350000600BDF90A20BDF90E108A4202DDBDF942
:104360000A1001E0BDF90E1088420BDDBDF9021004
:10437000BDF90600814202DDBDF902000DE0BDF984
:1043800006000AE0BDF90A10BDF90E00814202DD07
:10439000BDF90A0001E0BDF90E00801C00B2E0800A
:1043A00000BF0EE72DE9F743054616460024134CDF
:1043B00026F0C8F88046334629462046019A1AF06E
:1043C0002FFA07465FB900BF00BF2C2120461CF022
:1043D0008BFF4FF00040A0620020BDE8FE8300206C
:1043E000A062E06918B9404626F09EF8E061E069F5
:1043F00008B90120E0612046EFE70000280900200D
:1044000010B51421114800F0D7FA1AF0BBF9044690
:1044100000BF1CB900BF00BF00BFFEE700BF14B95A
:1044200000BF00BF10BD0A4920461AF093FA09499F
:1044300020461AF091FA084920461AF08FFA0749E7
:1044400020461AF085FA00BFECE7000010090020B2
:104450009DDF010871E4010891E6010865DF0108AC
:1044600070B504460D46102128461CF03DFF20681B
:104470000078012804D1208A2880608A68800CE0B6
:1044800020680078022802D1E068686005E02068B2
:104490000078042801D10A2068602068406820B1B3
:1044A000206829464268904701E000BF00BF70BD08
:1044B0002DE9FE430446A66AEEB9A18A208A084483
:1044C00001B2A182E18A608A084401B2E1822046F9
:1044D0000CF0E4FF06460EB9BDE8FE83204610F05E
:1044E00021F900220921304618F0BEFD6078C0F3A2
:1044F000400000B1F0E7208A10B9608A002870D02F
:1045000000200290019094F83C0000F00F00032876
:1045100012D130461EF0A4FF074630461EF028FF99
:10452000804603200090B4F910103B4642463046C6
:104530000CF0ACFA029012E030461FF013F8074678
:1045400030461EF087FE80460C200090B4F9121011
:1045500043463A4630460CF099FA019000BF304687
:104560001EF0D8FE054605F0010028B9BDF9080087
:10457000002801DD0020029005F0020028B9BDF9F5
:104580000800002801DA0020029005F0040028B994
:10459000BDF90400002801DD0020019005F00800AD
:1045A00028B9BDF90400002801DA0020019001AA11
:1045B00002A9204629F00EFA0023BDF90420BDF916
:1045C0000810304621F0C8FFA08ABDF80810084442
:1045D00001B2A182E08ABDF80410084401B2E18270
:1045E00000BF00BF78E72DE9F84F0446D4F828B0A3
:1045F000BBF1000F01D1BDE8F88F94F83C0000F04A
:104600000F0000B9F7E71AF04DFC06463068477E08
:104610004021584620F010FC10B90021618321830D
:1046200058461EF08BFF804658461EF091FF054607
:1046300094F83C0000F00F000C2843D100212183A6
:104640001DBBB4F91A00C7F164014843642190FB13
:10465000F1F001B2618358461EF0FCFD81465846D8
:104660001EF080FF82460C200090B4F91A104B46D1
:10467000524658460CF00AFA6083B4F91A20002317
:104680001946584621F068FF69E0204629F0F9F9FB
:104690000090002161836A46204629F09BF9BDF90C
:1046A000003041F6FF72514258460DF09FF88146A6
:1046B000BDF80000484402B201230021584621F011
:1046C0004BFF4CE094F83C0000F00F00032846D16B
:1046D00000216183B8F1000F23D1B4F91800C7F1AC
:1046E00064014843642190FBF1F001B221835846F4
:1046F0001EF03EFE814658461EF0B2FE8246032062
:104700000090B4F9181053464A4658460CF0BEF9CA
:104710002083B4F9181000231A46584621F01CFFD4
:104720001DE0204629F092F900900021218300220B
:104730006946204629F04EF9BDF9003041F6FF7276
:10474000514258460CF0B8FF8146BDF8000048447D
:1047500001B201230022584621F0FEFE00BF208B4B
:10476000002860D1608B00285DD11DBB58461EF02B
:10477000F9FE814658461EF06DFD8246B9F1000FE4
:1047800002DCBAF1000F14DDB9F1000F06DA0123E3
:104790004A460021584621F0DFFE0AE0BAF1000F38
:1047A00007DA0123CAF1000002B20021584621F0C5
:1047B000D3FE00BFB8F1000F23D158461EF0D8FD3C
:1047C000814658461EF04CFE8246B9F1000F02DCCD
:1047D000BAF1000F14DDB9F1000F06DA012300224F
:1047E0004946584621F0B8FE0AE0BAF1000F07DA50
:1047F00001230022CAF1000001B2584621F0ACFEAC
:1048000000BF32460A21584618F02EFC6078C0F3EB
:10481000400000B1EFE694F83C0020F00F0184F86E
:104820003C100021A16200BFE5E62DE9FF410446EE
:104830000F4614B914F07AFE04460CB9BDE8FF81A6
:1048400094F82800C0F3800010B100BF00BFF5E766
:104850001FB90020A4F85001F0E70020ADF80800CF
:10486000ADF80A00204614F079FE401E00B2ADF803
:104870000C00204614F0D8FE401E00B2ADF80E0029
:1048800002AA39466846FFF791F9064606B9D5E708
:104890002068007CC0F3400060B102982063039858
:1048A00060630120A4F85001606810B1606825F0D1
:1048B000E5FFC3E72068806918B12068694682690E
:1048C000904700250BE004F1300000EBC501002209
:1048D0006846FFF7ACF900B1B0E7681C85B2B4F8E0
:1048E0005001A842EFDCB4F85001202809DAB4F8EE
:1048F000502104F1300101EBC200694611F05BFE6A
:104900000BE00020A4F85001B4F8502104F130016C
:1049100001EBC20002A911F04EFEB4F85001401C98
:10492000A4F85001606810B1606825F0A7FF00BFCF
:1049300084E770B50546284600F013F804460026C3
:104940000CE02146284600F024F806462146284679
:1049500000F086F820461CF0F1FA3446002CF0D125
:1049600070BD014609B9002070474868FCE770B582
:10497000064600243046FFF7F4FF054605E0641CB8
:104980002946304600F005F80546002DF7D12046AF
:1049900070BD02460B461068001D0344186870473E
:1049A00002460B461068034418687047014609B96F
:1049B000002070478868FCE7002242608260CA1CC1
:1049C00022F003010160704770B50446216801F1CF
:1049D00008001CF0D5F90546A5B10022294620465D
:1049E00027F02AFA29462046626827F017FA6068FD
:1049F00020B12A462046616827F01EFA6560A0684B
:104A000000B9A560284670BD70B50446216801F163
:104A100008001CF0B5F90546A5B10022294620463C
:104A200027F0FCF929462046A26827F005FAA0687D
:104A300020B12A462046A16827F0F0F9A5606068F9
:104A400000B96560284670BD014609B9012070476C
:104A5000486818B9886808B90120F8E70020F6E727
:104A60002DE9F04104460D460CB9BDE8F081204621
:104A7000FFF777FFA8420FD129462046FFF789FFAD
:104A80006060606810B90020A0602FE0002220461E
:104A9000616827F0D1F929E02046FFF787FFA84297
:104AA0000FD129462046FFF77BFFA060A06810B910
:104AB000002060601AE000222046A16827F0AEF9CD
:104AC00014E029462046FFF76BFF0646294620469C
:104AD000FFF75FFF07463A463146204627F09EF92A
:104AE00032463946204627F0A7F900BF00BFBCE791
:104AF00010B504462068806818B120682146826895
:104B000090472068006828B120680068206020462F
:104B1000FFF7EEFF10BD0146886818B18868B0F94C
:104B2000160070470020FCE70146886818B18868C5
:104B3000807E800970470020FCE7F7B582B004460C
:104B40000E4614B9049805B0F0BD00BF612231468D
:104B500020461FF035FE0190019D00BFBDB12868C1
:104B6000A8B100BF6222314620461FF029FE019005
:104B70000198C0B207464FB13A462B6828460499BF
:104B800098470190BDF80400ADF8100000BF0498EC
:104B9000D9E700002DE9F04F95B004468B469146C9
:104BA0009A461E9D608C20F00400001D6084A4F8CD
:104BB00020902A89594620461FF002FE1490A4F83E
:104BC00020A02A89594620461FF0FAFD1390608CD8
:104BD00020F004006084DDE9131088420CD1DDE987
:104BE0001310884208D1BDF85000BDF84C1088421F
:104BF00002D115B0BDE8F08FA4F820902A8959465B
:104C000020461FF0DDFD1490A4F820A05946204650
:104C10000EF030FB12902989129A1068149A24F031
:104C2000BAF928890B2833D147F6FF7114988842C6
:104C300002D0139888422BD1204620F0A0F8019092
:104C400000EBD0704710204620F099F8019000EB5F
:104C5000D0704FEA600847F6FF711498884208D177
:104C6000781C08F10101884200DA01E008F1010036
:104C7000149047F6FF711398884208D1781C08F108
:104C80000101884200DA01E008F10100139000BF41
:104C90002348FFF799FE064600BF1EB900BF00BFBC
:104CA00000BFFEE700BF06B9A3E71498F0601398B1
:104CB000306134602889B080C6F808B002A810F0CE
:104CC00047FE314602A810F0F4FE164902A810F083
:104CD000C2FE1548049000BF144902A810F0C9FE96
:104CE000FF22002102A810F0D4FE298802A810F0AB
:104CF000C6FE698802A810F0A9FEE868089000BF07
:104D000002A8002190F83E2061F3000280F83E20C6
:104D100000BF2869079002A810F0E2FE00BF68E714
:104D20001C0900206D120308111503084114030823
:104D300010B514210148FFF73FFE10BD1C090020EB
:104D40002DE9FE4F04460F4690464FF0000900251E
:104D50004CE1E06800EBC5004068C0F3406000B182
:104D600043E1E16801EBC501496821F07F4022F091
:104D700079F9064626EA070008B9012000E000207C
:104D8000029026EA080008B9012000E00020019006
:104D9000DDE90101814270D0E06850F835A04FF0A4
:104DA000000B6A461021504623F070FD10B14FF001
:104DB000010B98E06A461121504623F067FD10B1BF
:104DC0004FF0010B8FE06A461221504623F05EFD42
:104DD00010B14FF0010B86E06A461321504623F0D4
:104DE00055FD10B14FF0010B7DE06A46152150468C
:104DF00023F04CFD10B14FF0010B74E06A46142112
:104E0000504623F043FD10B14FF0010B6BE06A46B2
:104E10000A21504623F03AFD10B14FF0010B62E039
:104E20006A466A21504623F031FD10B14FF0010B64
:104E300059E06A466B21504623F028FD10B14FF02F
:104E4000010B50E06A460121504623F01FFD10B1CE
:104E50004FF0010B47E06A460421504623F016FD4F
:104E600010B14FF0010B3EE06A460221504623F09C
:104E70000DFD18B14FF0010B35E0B5E06A46032196
:104E8000504623F003FD10B14FF0010B2BE06A46B2
:104E90000521504623F0FAFC10B14FF0010B22E03F
:104EA0006A460621504623F0F1FC10B14FF0010B89
:104EB00019E06A463221504623F0E8FC10B14FF069
:104EC000010B10E06A466D21504623F0DFFC10B163
:104ED0004FF0010B07E06A466C21504623F0D6FCE8
:104EE00008B14FF0010BBBF1000F02D00320BDE869
:104EF000FE8F6A466821504623F0C8FC10B14FF07F
:104F0000020970E06A466921504623F0BFFC10B1E7
:104F10004FF0020967E06A466D21504623F0B6FC67
:104F200010B14FF002095EE06A466C21504623F052
:104F3000ADFC10B14FF0020955E06A4637215046EA
:104F400023F0A4FC10B14FF002094CE06A4638216E
:104F5000504623F09BFC10B14FF0020943E06A4633
:104F60003521504623F092FC10B14FF002093AE08F
:104F70006A464021504623F089FC10B14FF00209E7
:104F800031E06A464521504623F080FC10B14FF0D5
:104F9000020928E06A464121504623F077FC10B10F
:104FA0004FF002091FE06A464221504623F06EFC92
:104FB00010B14FF0020916E06A464321504623F033
:104FC00065FC10B14FF002090DE06A4649215046D8
:104FD00023F05CFC10B14FF0020904E0B9F1000FBE
:104FE00001D14FF0010900BF00BF6D1C608CC0F300
:104FF000C500A8423FF6ADAE484678E701480068D4
:10500000704700007801002070470146C1F3041288
:10501000072A00DD0722D0B27047000001464FF694
:10502000FF70814201D11F20704709B90020FBE7C2
:10503000702902DA0948405CF6E7A1F1700081B2FC
:105040000748006838B107480068814203D2044825
:105050000068405CE8E70020E6E70000929A030859
:10506000E0020020F402002010B518210348FFF7E9
:10507000A3FC012025F01AFB10BD0000C808002089
:105080002DE9F04105460F4616460DB9BDE8F08101
:105090002846FBF77CFB8046394628460A4A1268B8
:1050A00090470746E8193146074A12689047064676
:1050B0003C4603E0A019285C2855641CA8EB0600B8
:1050C000A042F7D200BFE1E7240300202DE9F04120
:1050D00006460C4617461D4629463046084A1268C1
:1050E00090472060206830B1296888190021044A5F
:1050F0001268904700E000203860BDE8F0810000B1
:105100001C0300202DE9F04F87B004460F4692465D
:105110009846DDE910560DB1002028801CB900200A
:1051200007B0BDE8F08F207808B90020F8E70FB984
:105130000020F5E74FF0000906F0020010B906F074
:10514000040098B1002000E0401C215C0A2905D031
:10515000215C0D2902D0215C0029F5D1215C01B12F
:10516000401C15B14FF0FF312980D9E706F002004D
:1051700008B141F6FF7800200690059038E0002045
:105180000490059808B9012000E0002006A904AAAF
:10519000CDE90062CDE902100599601843465246F8
:1051A000394625F0EBFC83460498A8EB00000FFA83
:1051B00080F8049848440FFA80F9BBF1000F00D141
:1051C0001CE005985844059020780A2802D02078E1
:1051D0000D2800D112E00598205C0A2803D005981C
:1051E000205C0D2803D10598401C059006E000BF07
:1051F0000598205C10B1B8F1000FC0DC00BF059825
:1052000070B905A92046094A12689047834635B10E
:1052100000225946384618F0A0F80FFA80F900BF6E
:105220000DB1A5F8009005987AE700001C03002056
:105230002DE9F04706468846174606B10FB9BDE886
:10524000F0873046FBF7A3FA81463846FBF79FFA12
:10525000044604B9F3E704EB090A414630460B4A19
:10526000126890478046554603E0281B305C705515
:105270006D1E08EB0400A842F7D906EB0800224691
:1052800039461BF0EBFF00BFD9E7000024030020E4
:10529000024600200FA31B788B4211D113781BB953
:1052A0000123137001200BE01378012B02D100239E
:1052B000137005E01378022B02D100231370012034
:1052C0001378012B04D1202901D10223137001206E
:1052D000704700002300000073B582B006460398B3
:1052E0000190324600210846019B25F067FF0546E4
:1052F000002001900024681C1BF042FD044600BF02
:105300001CB900BF00BF00BFFEE700BF14B90020FA
:1053100004B070BD002060553246691C2046039BD6
:1053200025F04CFF2046F3E72DE9F04781460E4675
:1053300014461F46DDF820A035461BE0600800FB40
:10534000075529464846D047B0F1000809DD04F06A
:10535000010080F00100C0EB5404E8190546064640
:1053600008E0B8F1000F02DA6408354602E028468A
:10537000BDE8F087002CE1D10020F9E72DE9FF4FCF
:1053800085B08346DDE9158ADDE91349DDE9177546
:10539000129E05F00200F8B94FB105F0010030B1DE
:1053A000B9F1000F02D105F00C0000B17F1E03E03F
:1053B00030222046641C3254544501D2202CF7D3AD
:1053C00003E030222046641C325405F0010018B17D
:1053D000BC4201D2202CF4D305F01000B0B305F488
:1053E000806050B94CB1544501D0BC4205D1641E17
:1053F0001CB1B8F1100F00D1641EB8F1100F09D123
:1054000005F0200030B9202C04D278222046641CFC
:10541000325415E0B8F1100F09D105F0200030B179
:10542000202C04D258222046641C325408E0B8F1E3
:10543000020F05D1202C03D262222046641C325474
:10544000202C03D230222046641C3254202C16D249
:10545000B9F1000F04D02D222046641C32540EE016
:1054600005F0040020B12B222046641C325406E0D3
:1054700005F0080018B120222046641C3254CDE902
:105480000275CDE90064584606A90EC900F0A2F8DD
:1054900009B0BDE8F08F2DE9FF4F8FB08046DDE900
:1054A0001FABDDE91D96219D1C9C00270CB925F042
:1054B000100505F4806000B1E4B100BFB4FBF6F163
:1054C00006FB1141C8B20A2802DA00F1300107E0F8
:1054D00005F0200109B1412100E0612101440A39B0
:1054E000CBB239467F1C07AA5354B4FBF6F40CB177
:1054F000202FE3D307A8CDE904AB8DE88102039602
:105500000695404610A90EC9FFF738FF13B0BDE855
:10551000F08F2DE9FF4F8FB0DDE9217BDDF8908022
:10552000209EDDE91C454FF00009002184EA0100BE
:105530006940084301D128F0100808F4806028B1C0
:10554000002184EA0100694008432DD000BF3246A3
:105550003B4620462946FAF7CFFE02F0FF0ABAF191
:105560000A0F02DA0AF1300007E008F0200008B163
:10557000412000E0612050440A38C2B2484609F197
:10558000010907A90A5432463B4620462946FAF744
:10559000B3FE04460D46002184EA01006940084339
:1055A00002D0B9F1200FD2D32398CDE9036BCDE916
:1055B000050807A91E98CDE9001902900FA80FC889
:1055C000FFF7DCFE13B0BDE8F08F9A4200D288549A
:1055D000704770472DE9FF5F05461446DDE90EA6CA
:1055E000DDE91087A34607F0020078B907F0010053
:1055F00060B9B14607E02246641C2020039B019954
:10560000A84709F10109C145F5D300BF08E02246CA
:10561000641C711E0E461AF80100039B0199A847ED
:10562000002EF4D107F0020050B105E02246641CC0
:105630002020039B0199A847A4EB0B004045F5D31C
:10564000204604B0BDE8F09F2DE9FF4F8BB0074620
:1056500000250C9800B9FA4FEAE20E980078252848
:105660000AD02A466D1C0E990878DDE90C13B8475C
:105670000E98401C0E90DBE20E98401C0E90002409
:1056800000BF0E9800782B2819D004DC20281ED0EB
:1056900023282CD123E02D2809D0302827D144F00D
:1056A00001040E98401C0E9001200A9022E044F064
:1056B00002040E98401C0E9001200A901AE044F05B
:1056C00004040E98401C0E9001200A9012E044F051
:1056D00008040E98401C0E9001200A900AE044F045
:1056E00010040E98401C0E9001200A9002E0002049
:1056F0000A9000BF00BF0A980028C2D180460E99C8
:105700000878FEF728FA20B10EA8FEF70FFA8046B7
:1057100012E00E9800782A280ED1189901C9189124
:10572000002804DA44F00204C0F1000800E08046DA
:105730000E99491C0E9100BF4FF000090E98007899
:105740002E281FD144F480640E98401C0E900E99B0
:105750000878FEF700FA20B10EA8FEF7E7F98146B7
:1057600010E00E9800782A280CD1189901C91891D8
:10577000002801DD014600E0002189460E99491C00
:105780000E9100BF0E9800786C280AD004DC6828BF
:1057900016D06A2835D128E0742820D07A2830D154
:1057A00029E044F480740E98401C0E900E98007806
:1057B0006C2804D144F400740E98401C0E9021E033
:1057C00044F080040E98401C0E900E9800786828D3
:1057D00004D144F040040E98401C0E9012E044F4B2
:1057E00080740E98401C0E900CE044F400740E98E7
:1057F000401C0E9006E044F480740E98401C0E90FD
:1058000000E000BF00BF0E98007869281DD00EDCB4
:10581000622821D006DC25287ED050281AD05828AE
:105820007BD115E0632879D06428F9D10CE0732886
:1058300075D004DC6F280ED07028F1D109E07528EE
:1058400004D07828ECD102E000BF00BF00BF00BF49
:1058500000BF00BF00BF00BF0E980078782803D0BB
:105860000E980078582801D1102623E00E98007871
:10587000702803D00E98007850280CD1102644F0E0
:10588000100444F480740E984078562812D10E9873
:10589000401C0E900EE00E9800786F2801D108266B
:1058A00008E00E980078622801D1022602E00A265C
:1058B00024F010040E980078582803D00E98007831
:1058C000502801D144F020040E980078692805D0B2
:1058D0000E980078642801D024F00C0404F4806051
:1058E00008B124F001040E980078692803D00E98BE
:1058F000007864287CD104F40070B8B31898C01DF7
:1059000020F007001890D0E900AB189A08321892DE
:105910000020CDE9069803E073E17CE1F2E01CE1B0
:10592000CDE904600894BAEB00017BEB000001DADA
:10593000012000E00020002102900846B1EB0A019E
:1059400070EB0B0002DA5046594605E00020014694
:10595000B0EB0A0061EB0B01CDE900012A463846A5
:10596000DDE90C13FFF7D5FD0546C7E0FFE704F4BA
:105970008070D0B1189850F804AB18904FEADA70E4
:10598000CDE9039802960594BAF1000F01DD514666
:1059900001E0CAF10001CDE900102A463846DDE9F0
:1059A0000C13FFF778FD0546A8E004F0400028B18D
:1059B000189810F8041B1890C8B20DE004F080008D
:1059C00028B1189830F8041B189008B204E0189811
:1059D00000681899091D189182464FEADA70CDE9DE
:1059E000039802960594BAF1000F02DD514602E0D9
:1059F0000BE0CAF10001CDE900102A463846DDE986
:105A00000C13FFF748FD054678E00E9800785628FD
:105A100018D1189850F804AB1890DAF80400006810
:105A2000099009980090DAF800300D98421B0C9804
:105A300041193846FFF708FE0544002009905DE053
:105A4000D355000804F40070D0B11898C01D20F0A0
:105A50000700CDE90698089418900020CDE904606D
:105A60000290189903C9189A08321892CDE90001DA
:105A70002A463846DDE90C13FFF74BFD05463DE0AD
:105A800004F4807098B10022CDE903980296059441
:105A9000189800681899091DCDE9000218912A4646
:105AA0003846DDE90C13FFF7F6FC054626E004F066
:105AB000400028B1189810F8041B1890C8B20DE0E7
:105AC00004F0800028B1189830F8041B189088B2B0
:105AD00004E0189800681899091D18918246002062
